{
  "contractName": "EthSwap",
  "abi": [
    {
      "inputs": [],
      "stateMutability": "nonpayable",
      "type": "constructor"
    },
    {
      "anonymous": false,
      "inputs": [
        {
          "indexed": false,
          "internalType": "address",
          "name": "account",
          "type": "address"
        },
        {
          "indexed": false,
          "internalType": "address",
          "name": "token",
          "type": "address"
        },
        {
          "indexed": false,
          "internalType": "uint256",
          "name": "amount",
          "type": "uint256"
        },
        {
          "indexed": false,
          "internalType": "uint256",
          "name": "rate",
          "type": "uint256"
        }
      ],
      "name": "TokensPurchased",
      "type": "event"
    },
    {
      "anonymous": false,
      "inputs": [
        {
          "indexed": false,
          "internalType": "address",
          "name": "account",
          "type": "address"
        },
        {
          "indexed": false,
          "internalType": "address",
          "name": "token",
          "type": "address"
        },
        {
          "indexed": false,
          "internalType": "uint256",
          "name": "amount",
          "type": "uint256"
        },
        {
          "indexed": false,
          "internalType": "uint256",
          "name": "rate",
          "type": "uint256"
        }
      ],
      "name": "TokensSold",
      "type": "event"
    },
    {
      "inputs": [],
      "name": "name",
      "outputs": [
        {
          "internalType": "string",
          "name": "",
          "type": "string"
        }
      ],
      "stateMutability": "view",
      "type": "function",
      "constant": true
    },
    {
      "inputs": [],
      "name": "owner",
      "outputs": [
        {
          "internalType": "address",
          "name": "",
          "type": "address"
        }
      ],
      "stateMutability": "view",
      "type": "function",
      "constant": true
    },
    {
      "inputs": [],
      "name": "rate",
      "outputs": [
        {
          "internalType": "uint256",
          "name": "",
          "type": "uint256"
        }
      ],
      "stateMutability": "view",
      "type": "function",
      "constant": true
    },
    {
      "inputs": [
        {
          "internalType": "uint256",
          "name": "",
          "type": "uint256"
        }
      ],
      "name": "tokenList",
      "outputs": [
        {
          "internalType": "bytes32",
          "name": "ticker",
          "type": "bytes32"
        },
        {
          "internalType": "address",
          "name": "tokenAddress",
          "type": "address"
        }
      ],
      "stateMutability": "view",
      "type": "function",
      "constant": true
    },
    {
      "inputs": [
        {
          "internalType": "bytes32",
          "name": "",
          "type": "bytes32"
        }
      ],
      "name": "tokens",
      "outputs": [
        {
          "internalType": "bytes32",
          "name": "ticker",
          "type": "bytes32"
        },
        {
          "internalType": "address",
          "name": "tokenAddress",
          "type": "address"
        }
      ],
      "stateMutability": "view",
      "type": "function",
      "constant": true
    },
    {
      "inputs": [
        {
          "internalType": "bytes32",
          "name": "_token",
          "type": "bytes32"
        }
      ],
      "name": "buyTokens",
      "outputs": [],
      "stateMutability": "payable",
      "type": "function",
      "payable": true
    },
    {
      "inputs": [
        {
          "internalType": "bytes32",
          "name": "_token",
          "type": "bytes32"
        },
        {
          "internalType": "uint256",
          "name": "_amount",
          "type": "uint256"
        }
      ],
      "name": "sellTokens",
      "outputs": [],
      "stateMutability": "nonpayable",
      "type": "function"
    },
    {
      "inputs": [
        {
          "internalType": "bytes32",
          "name": "_ticker",
          "type": "bytes32"
        },
        {
          "internalType": "address",
          "name": "_tokenAddress",
          "type": "address"
        }
      ],
      "name": "addToken",
      "outputs": [],
      "stateMutability": "nonpayable",
      "type": "function"
    },
    {
      "inputs": [],
      "name": "listTokens",
      "outputs": [
        {
          "components": [
            {
              "internalType": "bytes32",
              "name": "ticker",
              "type": "bytes32"
            },
            {
              "internalType": "address",
              "name": "tokenAddress",
              "type": "address"
            }
          ],
          "internalType": "struct EthSwap.Token[]",
          "name": "",
          "type": "tuple[]"
        }
      ],
      "stateMutability": "view",
      "type": "function",
      "constant": true
    }
  ],
  "bytecode": "0x60806040526040518060400160405280601881526020017f4574685377617020496e7374616e742045786368616e676500000000000000008152506000908051906020019061004f9291906100a8565b50606460025534801561006157600080fd5b5033600160006101000a81548173ffffffffffffffffffffffffffffffffffffffff021916908373ffffffffffffffffffffffffffffffffffffffff16021790555061014d565b828054600181600116156101000203166002900490600052602060002090601f016020900481019282601f106100e957805160ff1916838001178555610117565b82800160010185558215610117579182015b828111156101165782518255916020019190600101906100fb565b5b5090506101249190610128565b5090565b61014a91905b8082111561014657600081600090555060010161012e565b5090565b90565b611091806200015d6000396000f3fe6080604052600436106100865760003560e01c8063904194a311610059578063904194a3146101375780639776aacf146101755780639ead72221461019e578063b81127ef146101dc578063ea7000d61461020557610086565b806306fdde031461008b5780632c4e722e146100b65780637488ff76146100e15780638da5cb5b1461010c575b600080fd5b34801561009757600080fd5b506100a0610221565b6040516100ad9190610e61565b60405180910390f35b3480156100c257600080fd5b506100cb6102bf565b6040516100d89190610ec3565b60405180910390f35b3480156100ed57600080fd5b506100f66102c5565b6040516101039190610e16565b60405180910390f35b34801561011857600080fd5b50610121610384565b60405161012e9190610d3b565b60405180910390f35b34801561014357600080fd5b5061015e60048036036101599190810190610a90565b6103aa565b60405161016c929190610e38565b60405180910390f35b34801561018157600080fd5b5061019c60048036036101979190810190610ab9565b6103ee565b005b3480156101aa57600080fd5b506101c560048036036101c09190810190610b31565b6105bd565b6040516101d3929190610e38565b60405180910390f35b3480156101e857600080fd5b5061020360048036036101fe9190810190610af5565b61060e565b005b61021f600480360361021a9190810190610a90565b610817565b005b60008054600181600116156101000203166002900480601f0160208091040260200160405190810160405280929190818152602001828054600181600116156101000203166002900480156102b75780601f1061028c576101008083540402835291602001916102b7565b820191906000526020600020905b81548152906001019060200180831161029a57829003601f168201915b505050505081565b60025481565b60606004805480602002602001604051908101604052809291908181526020016000905b8282101561037b5783829060005260206000209060020201604051806040016040529081600082015481526020016001820160009054906101000a900473ffffffffffffffffffffffffffffffffffffffff1673ffffffffffffffffffffffffffffffffffffffff1673ffffffffffffffffffffffffffffffffffffffff1681525050815260200190600101906102e9565b50505050905090565b600160009054906101000a900473ffffffffffffffffffffffffffffffffffffffff1681565b60036020528060005260406000206000915090508060000154908060010160009054906101000a900473ffffffffffffffffffffffffffffffffffffffff16905082565b600160009054906101000a900473ffffffffffffffffffffffffffffffffffffffff1673ffffffffffffffffffffffffffffffffffffffff163373ffffffffffffffffffffffffffffffffffffffff161461047e576040517f08c379a000000000000000000000000000000000000000000000000000000000815260040161047590610ea3565b60405180910390fd5b60405180604001604052808381526020018273ffffffffffffffffffffffffffffffffffffffff16815250600360008481526020019081526020016000206000820151816000015560208201518160010160006101000a81548173ffffffffffffffffffffffffffffffffffffffff021916908373ffffffffffffffffffffffffffffffffffffffff160217905550905050600460405180604001604052808481526020018373ffffffffffffffffffffffffffffffffffffffff1681525090806001815401808255809150506001900390600052602060002090600202016000909190919091506000820151816000015560208201518160010160006101000a81548173ffffffffffffffffffffffffffffffffffffffff021916908373ffffffffffffffffffffffffffffffffffffffff16021790555050505050565b600481815481106105ca57fe5b90600052602060002090600202016000915090508060000154908060010160009054906101000a900473ffffffffffffffffffffffffffffffffffffffff16905082565b60006003600084815260200190815260200160002060010160009054906101000a900473ffffffffffffffffffffffffffffffffffffffff169050818173ffffffffffffffffffffffffffffffffffffffff166370a08231336040518263ffffffff1660e01b81526004016106839190610d56565b60206040518083038186803b15801561069b57600080fd5b505afa1580156106af573d6000803e3d6000fd5b505050506040513d601f19601f820116820180604052506106d39190810190610b5a565b10156106de57600080fd5b600060025483816106eb57fe5b049050804710156106fb57600080fd5b8173ffffffffffffffffffffffffffffffffffffffff166323b872dd3330866040518463ffffffff1660e01b815260040161073893929190610d71565b602060405180830381600087803b15801561075257600080fd5b505af1158015610766573d6000803e3d6000fd5b505050506040513d601f19601f8201168201806040525061078a9190810190610a67565b503373ffffffffffffffffffffffffffffffffffffffff166108fc829081150290604051600060405180830381858888f193505050501580156107d1573d6000803e3d6000fd5b507f697c42d55a5e1fed3f464ec6f38b32546a0bd368dc8068b065c67566d73f32903383856002546040516108099493929190610da8565b60405180910390a150505050565b600060025434029050600082905060006003600083815260200190815260200160002060010160009054906101000a900473ffffffffffffffffffffffffffffffffffffffff169050828173ffffffffffffffffffffffffffffffffffffffff166370a08231306040518263ffffffff1660e01b815260040161089a9190610d3b565b60206040518083038186803b1580156108b257600080fd5b505afa1580156108c6573d6000803e3d6000fd5b505050506040513d601f19601f820116820180604052506108ea9190810190610b5a565b101561092b576040517f08c379a000000000000000000000000000000000000000000000000000000000815260040161092290610e83565b60405180910390fd5b8073ffffffffffffffffffffffffffffffffffffffff1663a9059cbb33856040518363ffffffff1660e01b8152600401610966929190610ded565b602060405180830381600087803b15801561098057600080fd5b505af1158015610994573d6000803e3d6000fd5b505050506040513d601f19601f820116820180604052506109b89190810190610a67565b507f6faf93231a456e552dbc9961f58d9713ee4f2e69d15f1975b050ef0911053a7b3382856002546040516109f09493929190610da8565b60405180910390a150505050565b600081359050610a0d81610fff565b92915050565b600081519050610a2281611016565b92915050565b600081359050610a378161102d565b92915050565b600081359050610a4c81611044565b92915050565b600081519050610a6181611044565b92915050565b600060208284031215610a7957600080fd5b6000610a8784828501610a13565b91505092915050565b600060208284031215610aa257600080fd5b6000610ab084828501610a28565b91505092915050565b60008060408385031215610acc57600080fd5b6000610ada85828601610a28565b9250506020610aeb858286016109fe565b9150509250929050565b60008060408385031215610b0857600080fd5b6000610b1685828601610a28565b9250506020610b2785828601610a3d565b9150509250929050565b600060208284031215610b4357600080fd5b6000610b5184828501610a3d565b91505092915050565b600060208284031215610b6c57600080fd5b6000610b7a84828501610a52565b91505092915050565b6000610b8f8383610cfd565b60408301905092915050565b610ba481610f85565b82525050565b610bb381610f33565b82525050565b610bc281610f33565b82525050565b6000610bd382610eee565b610bdd8185610f11565b9350610be883610ede565b8060005b83811015610c19578151610c008882610b83565b9750610c0b83610f04565b925050600181019050610bec565b5085935050505092915050565b610c2f81610f51565b82525050565b610c3e81610f51565b82525050565b6000610c4f82610ef9565b610c598185610f22565b9350610c69818560208601610fbb565b610c7281610fee565b840191505092915050565b6000610c8a601f83610f22565b91507f494e53554646494349454e5420544f4b454e5320494e20434f4e5452414354006000830152602082019050919050565b6000610cca601283610f22565b91507f4f6e6c792041646d696e20416c6c6f77656400000000000000000000000000006000830152602082019050919050565b604082016000820151610d136000850182610c26565b506020820151610d266020850182610baa565b50505050565b610d3581610f7b565b82525050565b6000602082019050610d506000830184610bb9565b92915050565b6000602082019050610d6b6000830184610b9b565b92915050565b6000606082019050610d866000830186610b9b565b610d936020830185610bb9565b610da06040830184610d2c565b949350505050565b6000608082019050610dbd6000830187610b9b565b610dca6020830186610bb9565b610dd76040830185610d2c565b610de46060830184610d2c565b95945050505050565b6000604082019050610e026000830185610b9b565b610e0f6020830184610d2c565b9392505050565b60006020820190508181036000830152610e308184610bc8565b905092915050565b6000604082019050610e4d6000830185610c35565b610e5a6020830184610bb9565b9392505050565b60006020820190508181036000830152610e7b8184610c44565b905092915050565b60006020820190508181036000830152610e9c81610c7d565b9050919050565b60006020820190508181036000830152610ebc81610cbd565b9050919050565b6000602082019050610ed86000830184610d2c565b92915050565b6000819050602082019050919050565b600081519050919050565b600081519050919050565b6000602082019050919050565b600082825260208201905092915050565b600082825260208201905092915050565b6000610f3e82610f5b565b9050919050565b60008115159050919050565b6000819050919050565b600073ffffffffffffffffffffffffffffffffffffffff82169050919050565b6000819050919050565b6000610f9082610f97565b9050919050565b6000610fa282610fa9565b9050919050565b6000610fb482610f5b565b9050919050565b60005b83811015610fd9578082015181840152602081019050610fbe565b83811115610fe8576000848401525b50505050565b6000601f19601f8301169050919050565b61100881610f33565b811461101357600080fd5b50565b61101f81610f45565b811461102a57600080fd5b50565b61103681610f51565b811461104157600080fd5b50565b61104d81610f7b565b811461105857600080fd5b5056fea26469706673582212201b54653ec73cabff95e1b339f6d0e76f9b9216e99ea3697250dacd232b78148e64736f6c63430006000033",
  "source": "pragma solidity ^0.6.0;\r\npragma experimental ABIEncoderV2;\r\nimport '@openzeppelin/contracts/token/ERC20/IERC20.sol';\r\n\r\n\r\ncontract EthSwap {\r\n  string public name = \"EthSwap Instant Exchange\";\r\n  address public owner;\r\n  uint public rate = 100;\r\n      // collection of tokens\r\n    mapping(bytes32=>Token) public tokens;\r\n\r\n    // a struct to represent erc20  tokens\r\n    struct Token{\r\n        bytes32 ticker;\r\n        address tokenAddress;\r\n    }\r\n      // a list of tokens which we can iterate through\r\n    Token[] public tokenList;\r\n\r\n\r\n  event TokensPurchased(\r\n    address account,\r\n    address token,\r\n    uint amount,\r\n    uint rate\r\n  );\r\n\r\n  event TokensSold(\r\n    address account,\r\n    address token,\r\n    uint amount,\r\n    uint rate\r\n  );\r\n\r\n  constructor() public {\r\n    owner=msg.sender;\r\n    // token = _token;\r\n    // ad this token to the token list\r\n   \r\n\r\n  } \r\n\r\n  // modifiers\r\n modifier onlyAdmin() {\r\n        require(msg.sender==owner,'Only Admin Allowed');\r\n        _;\r\n    }\r\n\r\n\r\n    function buyTokens(bytes32 _token) public payable {\r\n    // Calculate the number of tokens to buy\r\n    uint tokenAmount = msg.value * rate;\r\n    bytes32 ticker= bytes32(_token);\r\n    address  currentTokenAddress=tokens[ticker].tokenAddress;\r\n\r\n    // Require that EthSwap has enough tokens\r\n    require(IERC20(currentTokenAddress).balanceOf(address(this)) >= tokenAmount,'INSUFFICIENT TOKENS IN CONTRACT');\r\n\r\n    // Transfer tokens to the user\r\n    // token.transfer(msg.sender, tokenAmount);\r\n\r\n     IERC20(currentTokenAddress).transfer(\r\n            msg.sender,\r\n            tokenAmount\r\n            );\r\n\r\n    // Emit an event\r\n    emit TokensPurchased(msg.sender, currentTokenAddress, tokenAmount, rate);\r\n  }\r\n    \r\n\r\n  // function buyTokens(bytes32 _token) public payable {\r\n  //   // Calculate the number of tokens to buy\r\n  //   uint tokenAmount = msg.value * rate;\r\n  //   address  currentTokenAddress=tokens[_token].tokenAddress;\r\n\r\n  //   // Require that EthSwap has enough tokens\r\n  //   require(IERC20(currentTokenAddress).balanceOf(address(this)) >= tokenAmount,'INSUFFICIENT TOKENS IN CONTRACT');\r\n\r\n  //   // Transfer tokens to the user\r\n  //   // token.transfer(msg.sender, tokenAmount);\r\n\r\n  //    IERC20(currentTokenAddress).transfer(\r\n  //           msg.sender,\r\n  //           tokenAmount\r\n  //           );\r\n\r\n  //   // Emit an event\r\n  //   emit TokensPurchased(msg.sender, currentTokenAddress, tokenAmount, rate);\r\n  // }\r\n\r\n  function sellTokens(bytes32 _token,uint _amount) public {\r\n    address  currentTokenAddress=tokens[_token].tokenAddress;\r\n    // User can't sell more tokens than they have\r\n    require(IERC20(currentTokenAddress).balanceOf(msg.sender) >= _amount);\r\n\r\n    // Calculate the amount of Ether to redeem\r\n    uint etherAmount = _amount / rate;\r\n\r\n    // Require that EthSwap has enough Ether\r\n    require(address(this).balance >= etherAmount);\r\n\r\n    // Perform sale\r\n    // token.transferFrom(msg.sender, address(this), _amount);\r\n    IERC20(currentTokenAddress).transferFrom(msg.sender,address(this),_amount);\r\n\r\n    msg.sender.transfer(etherAmount);\r\n\r\n    // Emit an event\r\n    emit TokensSold(msg.sender, currentTokenAddress, _amount, rate);\r\n  }\r\n\r\n\r\n  // a function to add tokens to the dex\r\n    function addToken(bytes32 _ticker ,address _tokenAddress) onlyAdmin()  external  {\r\n        // add the new token to the mapping \r\n        \r\n        tokens[_ticker]=Token({\r\n                               ticker:_ticker,\r\n                            tokenAddress: _tokenAddress\r\n                              });\r\n                              \r\n        // add token to the token list\r\n        tokenList.push(Token({\r\n                               ticker:_ticker,\r\n                            tokenAddress: _tokenAddress\r\n                              }));\r\n                              \r\n    }\r\n\r\n    // a function to list tokens\r\n    function listTokens() public view returns (Token[] memory){\r\n      return tokenList;\r\n    }\r\n\r\n\r\n\r\n}",
  "sourcePath": "C:/Users/Abhishek/Desktop/web dev/JS_INTERVIEW/REACTJS/PROJECT1/EAT_THE_BLOCKS/eth_swap/eth-swap/src/contracts/EthSwap.sol",
  "compiler": {
    "name": "solc",
    "version": "0.6.0+commit.26b70077.Emscripten.clang"
  },
  "schemaVersion": "3.3.1",
  "updatedAt": "2020-11-24T06:30:46.266Z",
  "networkType": "ethereum",
  "devdoc": {
    "methods": {}
  },
  "userdoc": {
    "methods": {}
  }
}